:100000000EC020C01FC01EC01DC01CC01BC01AC017
:1000100019C018C017C016C015C014C013C01124D1
:100020001FBECFE5D2E0DEBFCDBF10E0A0E6B0E05E
:10003000E4EAF9E002C005900D92A436B107D9F7C1
:100040006FD0AEC4DDCF9C012115310509F40895B0
:1000500000000000000000000000000000000000A0
:1000600021503109F1CF9C012115310509F4089582
:1000700084E690E0000000000000000000000000A6
:100080000000000000000000000000000000000070
:100090000000000000000000000000000000000060
:1000A0000000000000000000000000000000000050
:1000B0000000000000000000000000000000000040
:1000C0000000000000000000000000000000000030
:1000D0000000000000000000000000000000000020
:1000E0000000000000000000000000000000000010
:1000F0000000000000000000000000000000000000
:1001000000000000000000000000000000000000EF
:1001100000000000019709F0ADCF21503109A4CFB4
:10012000CDB7DEB7EE970FB6F894DEBF0FBECDBFEA
:1001300088E187BB83E088BB18A21F8E20E533ECE3
:100140003E872D8741E050E05E8B4D8B20E63AEEF6
:1001500018AA1FA650E040E061E070E07A8B698B3E
:100160001EA61DA61E8E1D8E88EE93E09A87898797
:10017000A0E1B7E2BCAFABAF188E1F8A1A8E198E02
:100180001C8E1B8EE0E4FCE9FAA7E9A77C8B6B8B45
:1001900010E000E018AE1FAA1AA219A21EA21DA20A
:1001A000312C212C80E197E29CAB8BABA4EFB1E02A
:1001B000BCA7ABA7E4EFF1E0FAAFE9AF1AAA19AA1E
:1001C00060E47CE97A83698318A61FA21EAA1DAA8F
:1001D00090E080E01CA21BA268EC862E912CA12C42
:1001E000B12C74E1472E512C612C712CE5E0CE2E00
:1001F000D12CE12CF12CDC011196BEAFADAFEDA9F5
:10020000FEA9EF2B09F485C36D857E858F8D98A19E
:100210008617970750F0A1E0B0E0EDA5FEA5AE1B54
:10022000BF0BBEA7ADA718A21F8E6F8D78A16F5F01
:100230007F4F78A36F8F8DA59EA5892B09F469C385
:10024000A985BA85ED8DFE8DEA17FB0750F061E0B8
:1002500070E089899A89681B790B7A8B698B1E8E6D
:100260001D8EAD8DBE8D1196BE8FAD8FE981FA8149
:100270000E171F0738F061E070E0621973091B0167
:1002800010E000E089A19AA1059720F00F5F1F4FB1
:100290001AA219A289A19AA101962114310409F484
:1002A0003BC3ABA9BCA9EFA1F8A5EA17FB0750F027
:1002B00061E070E0AFA5B8A96A1B7B0B78AB6FA7B4
:1002C00018A61FA2EFA1F8A53196F8A7EFA36FA576
:1002D00078A9672B09F420C3ADA1BEA1EBA5FCA5AD
:1002E000AE17BF0750F061E070E0AD89BE896A1BB0
:1002F0007B0B7E8B6D8B1EA21DA2EDA1FEA1319604
:10030000FEA3EDA369817A810617170738F0A1E0F3
:10031000B0E0A219B3091D0110E000E0853091059D
:1003200021F40F5F1F4F90E080E0FC013196FAA3AB
:10033000E9A369A97AA9672B09F4F1C28B8D9C8D79
:10034000ABADBCAD8A179B0750F0E1E0F0E06FA9C0
:1003500078ADE61BF70BF8AFEFAB1C8E1B8E8B8DC9
:100360009C8D01969C8F8B8FAFA9B8ADAB2B09F4F8
:10037000D6C2EF89F88D69AD7AADE617F70750F070
:1003800081E090E0AB89BC898A1B9B0B9C8B8B8B9B
:10039000188E1F8AEF89F88D3196F88FEF8B698D53
:1003A0007A8D89A59AA56817790750F0A1E0B0E089
:1003B000E9A9FAA9AE1BBF0BBAABA9AB1A8E198E6D
:1003C0004530510530F0498D5A8D4F5F5F4F5A8F40
:1003D000498F89899A896D897E8986279727AB8974
:1003E000BC898A179B0709F49DC288B3886188BBC2
:1003F000B09944C12DE63EE446EC51E460916000C2
:100400007091610080916200909163008ED2675C70
:100410007F4C8F4F9F4F69837A838B839C83AA275E
:10042000BB279C01AD013F77442755272D833E8391
:100430004F835887CA01B901A50194018FD23AAF01
:1004400029AF2DE63EE446EC51E469817A818B8147
:100450009C816BD2675C7F4C8F4F9F4F69837A83FF
:100460008B839C83AA27BB27AC01BD015F776627DE
:1004700077274D835E836F837887CB01BA01A30111
:1004800092016CD23CAF2BAF2DE63EE446EC51E43A
:1004900069817A818B819C8148D2675C7F4C8F4FC8
:1004A0009F4F69837A838B839C83AA27BB279C01F8
:1004B000AD013F77442755272D833E834F835887CF
:1004C000CA01B901A701960149D23AA729A72DE689
:1004D0003EE446EC51E469817A818B819C8125D28E
:1004E000675C7F4C8F4F9F4F69837A838B839C839C
:1004F000AA27BB27AC01BD015F77662777274D830D
:100500005E836F837887CB01BA01A501940126D25F
:100510003CA72BA72DE63EE446EC51E469817A81A5
:100520008B819C8102D2675C7F4C8F4F9F4F698388
:100530007A838B839C83AA27BB279C01AD013F77DD
:10054000442755272D833E834F835887CA01B9011D
:10055000A301920103D23CAB2BAB2DE63EE446EC6B
:1005600051E469817A818B819C81DFD1675C7F4C0A
:100570008F4F9F4F6D837E838F839887AA27BB27DA
:10058000AC01BD015F776627772749835A836B8368
:100590007C83CB01BA01A7019601E0D13A8329837C
:1005A0002DE63EE446EC51E46D817E818F81988595
:1005B000BCD1675C7F4C8F4F9F4F6D837E838F8351
:1005C0009887AA27BB279C01AD013F774427552771
:1005D00029873A874B875C87CA01B901A501940135
:1005E000BDD13A8729872DE63EE446EC51E46D8182
:1005F0007E818F81988599D1675C7F4C8F4F9F4F0B
:100600006D837E838F839887AA27BB27AC01BD01AA
:100610005F77662777274D875E876F87788BCB015B
:10062000BA01A30192019AD13E872D872DE63EE4BF
:1006300046EC51E46D817E818F81988576D1DC0115
:10064000CB01875C9F4CAF4FBF4F8093600090936E
:100650006100A0936200B0936300CD01AA27BB277D
:100660009C01AD013F77442755272D833E834F835F
:100670005887CA01B901A701960170D1B19928C163
:100680002DE63EE446EC51E460916000709161001B
:10069000809162009091630048D1675C7F4C8F4FDE
:1006A0009F4F69837A838B839C83AA27BB27AC01E6
:1006B000BD015F77662777274D835E836F837887D9
:1006C000CB01BA0120E931E040E050E047D13AAF38
:1006D00029AF2DE63EE446EC51E469817A818B81B5
:1006E0009C8123D1675C7F4C8F4F9F4F69837A83B6
:1006F0008B839C83AA27BB279C01AD013F774427AE
:1007000055272D833E834F835887CA01B901A7011E
:10071000960124D13CAF2BAF2DE63EE446EC51E4EC
:1007200069817A818B819C8100D1675C7F4C8F4F7E
:100730009F4F69837A838B839C83AA27BB279F77EC
:10074000AA27BB279AA789A72DE63EE446EC51E4E9
:1007500069817A818B819C81E8D0675C7F4C8F4F67
:100760009F4F69837A838B839C83AA27BB27AC0125
:10077000BD015F77662777274D835E836F83788718
:10078000CB01BA0120E931E040E050E0E7D03CA7DE
:100790002BA72DE63EE446EC51E469817A818B81FA
:1007A0009C81C3D0675C7F4C8F4F9F4F69837A8356
:1007B0008B839C83AA27BB279C01AD013F774427ED
:1007C00055272D833E834F835887CA01B901A7015E
:1007D0009601C4D03CAB2BAB2DE63EE446EC51E495
:1007E00069817A818B819C81A0D0675C7F4C8F4F1F
:1007F0009F4F6D837E838F8398879C014427552765
:100800003F77442755273A8329832DE63EE446EC7B
:1008100051E48BD0675C7F4C8F4F9F4F6D837E83FD
:100820008F839887AA27BB27AC01BD015F77662716
:10083000772749875A876B877C87CB01BA01A50147
:1008400094018CD03A8729872DE63EE446EC51E4AA
:100850006D817E818F81988568D0675C7F4C8F4FDA
:100860009F4F6D837E838F839887AA27BB279C0128
:10087000AD013F77442755272D873E874F87588BFB
:10088000CA01B901A701960169D03E872D872DE6DF
:100890003EE446EC51E46D817E818F81988545D0A0
:1008A0006D837E838F839887DC01CB01875C9F4CAF
:1008B000AF4FBF4F8093600090936100A0936200A0
:1008C000B09363009D01442755273F774427552760
:1008D0008BA19CA18217930750F0A1E0B0E0EDA995
:1008E000FEA9AE1BBF0BBEABADAB1CA21BA24DAD98
:1008F0005EAD8DAD9EAD4530510541F46BA17CA13F
:100900006F5F7F4F7CA36BA390E080E04DAD5EAD49
:1009100072CC1A8A198AAACC1E8A1D8AF3CC1C8A28
:100920001B8A3DCD88B3877E62CDEE27FF27AA279D
:10093000BB2708C0A20FB31FE41FF51F220F331FF0
:10094000441F551F969587957795679598F3704046
:10095000A9F7009799F7BD01CF010895A1E21A2EDA
:10096000AA1BBB1BFD010DC0AA1FBB1FEE1FFF1F53
:10097000A217B307E407F50720F0A21BB30BE40BA3
:10098000F50B661F771F881F991F1A9469F76095EA
:100990007095809590959B01AC01BD01CF010895A4
:0409A000F894FFCFF9
:00000001FF
